S01A000050686F6E6F73796E746841746D65676138382E7372656311
S113000061C185C184C183C182C181C180C17FC1F5
S11300107EC17DC17CC17BC17AC1B9C144C477C1F1
S1130020D1CC75C174C173C172C141C370C16FC1F8
S11300306EC16DC1ADC4B0C407C53DC584C5C1C5DD
S11300400DC686C6BDC6F0C648C77BC7BDC7FFC7B9
S113005045C88BC8D7C8F2C80FC901000002000008
S11300600300040005808182838485868788898AC9
S11300708B8C8D8E8F909192939495969798999A54
S11300809B9C9D9E9FA0A1A2A3A4A5A6A7A8A9AA44
S1130090ABACADAEAFB0B1B2B3B4B5B6B7B8B9BA34
S11300A0BBBCBDBEBFC0C1C2C3C4C5C6C7C8C9CA24
S11300B0CBCCCDCECFD0D1D2D3D4D5D6D7D8D9DA14
S11300C0DBDCDDDEDFE0E1E2E3E4E5E6E7E8E9EA04
S11300D0EBECEDEEEFF0F1F2F3F4F5F6F7F8F9FAF4
S11300E0FBFCFDFEFF000102030405060708090AE4
S11300F00B0C0D0E0F101112131415161718191AD4
S11301001B1C1D1E1F202122232425262728292AC3
S11301102B2C2D2E2F303132333435353738393AB4
S11301203B3C3D3E3F404142434445464748494AA3
S11301304B4C4D4E4F505152535455565758595A93
S11301405B5C5D5E5F606162636465666768696A83
S11301506B6C6D6E6F707172737475767778797A73
S11301607B7C7D7E7FFF0306090C0F1215181C1F74
S11301702225282B2E303336393C3F414447494C05
S11301804E515355585A5C5E60626466686A6C6D81
S11301906F70727375767778797A7B7C7C7D7E7EDE
S11301A07F7F7F7F7F7F7F7F7F7F7F7E7E7D7C7C65
S11301B07B7A79787776757372706F6D6C6A68661E
S11301C06462605E5C5A585553514E4C49474441F1
S11301D03F3C393633302E2B2825221F1C1815128C
S11301E00F0C09060300FCF9F6F3F0EDEAE7E3E08F
S11301F0DDDAD7D4D1CFCCC9C6C3C0BEBBB8B6B381
S1130200B1AEACAAA7A5A3A19F9D9B9997959392E4
S1130210908F8D8C8A898887868584838382818167
S113022080808080808080808080808181828383C0
S11302308485868788898A8C8D8F909293959799E7
S11302409B9D9FA1A3A5A7AAACAEB1B3B6B8BBBEF4
S1130250C0C3C6C9CCCFD1D4D7DADDE0E3E7EAED39
S1130260F0F3F6F9FC0000000700020100000304AB
S113027006000000000000000001020408102040F5
S11302808001020408102001020408102004040460
S1130290040404040402020202020203030303032B
S11302A003000000002300260029000000000025B0
S11302B00028002B0000000000240027002A000072
S11302C08603B80C11241FBECFEFD4E0DEBFCDBF30
S11302D011E0A0E0B1E0E8E6FFE102C005900D9274
S11302E0A631B107D9F723E0A6E1B1E001C01D9220
S11302F0A83CB207E1F712E0C4ECD2E003C02297B5
S1130300FE012CDEC03CD107D1F753DB2BCE78CED7
S113031009D9B1C1CF92DF92EF92FF92C0901A0136
S1130320D0901B01E0901C01F0901D0180911601FA
S113033090911701A0911801B0911901A70196019C
S1130340281B390B4A0B5B0B2F3F31054105510527
S113035009F0C4F43FEFC31AD30AE30AF30AC092C4
S11303601A01D0921B01E0921C01F0921D01C8D920
S1130370EC2DF0E0EE0FFF1FE25EFE4F8C509F4F1E
S113038091838083FF90EF90DF90CF9008951F9228
S11303900F920FB60F9211248F939F93AF93BF9335
S11303A0EF93FF938091160190911701A09118018A
S11303B0B09119010196A11DB11D8093160190936E
S11303C01701A0931801B09319018091160190911F
S11303D01701A0911801B0911901E82FF0E0EE0F78
S11303E0FF1FE25EFE4F808191819093890080938C
S11303F08800FF91EF91BF91AF919F918F910F90E2
S11304000FBE0F901F9018950F931F93CF93DF93F8
S1130410EC0180E0DAD084B580931E0385B5809327
S11304201F0387B58093200380916E00809321037E
S11304309E0140E050E060E472E48FE090E031DC43
S113044089019A0140E068E871E0C801D2D125D25F
S113045084B58093220385B58093230387B5809365
S1130460240380916E008093250380918000809303
S113047026038091810080932703809188009091C6
S113048089008093280380916F008093290361E0A1
S113049089E051DB11E01093470380E18093480326
S11304A010924903809381001092800084EF90E0C1
S11304B0A0E0B0E01093420390934403809343037D
S11304C0909387008093860081E18093810061E0AE
S11304D089E031DB8091800090914903892B806809
S11304E0809380002091430330914403A4EFB0E053
S11304F0F3DBBAE09695879577956795BA95D1F72A
S1130500709389006093880080914203909148031E
S1130510892B8093810010936F00809180008093D9
S11305202A038091810080932B038091880090910D
S1130530890080932C0380916F0080932D03DF91B9
S1130540CF911F910F910895811109C080917A0074
S1130550846080937A0080917A008D7F1AC0813004
S113056071F480917A008B7F80937A0080917A0075
S1130570826080937A0080917A0081600FC082301B
S113058079F480917A008B7F80937A0080917A004D
S1130590826080937A0080917A008E7F80937A00C3
S11305A0089580E090E041E050E060917E009A017F
S11305B0082E01C0220F0A94EAF7622B60937E0092
S11305C001968630910589F70895EAE7F0E0908175
S11305D098609083B9DFE5CF8770806480937C0056
S11305E0EAE7F0E080818064808308958E3008F02B
S11305F08E5020914003309141032530310554F44D
S11306002F5F3F4F3093410320934003F901E65C91
S1130610FC4F8083E82FF0E0EE0FFF1FE25DFC4FFC
S113062020813181C9010895CF93DF931F92CDB703
S1130630DEB780914003909141038F3F2FEF9207E3
S113064061F0FC01E65CFC4F2081298301979093C3
S1130650410380934003898101C08FEF809300019F
S1130660809100018F3F19F080910001B5DF0F9058
S1130670DF91CF910895809100018F3F21F4D4DF61
S113068081E0809301010895EAE7F0E080818064CD
S113069080830895E0910001809178009091790021
S11306A0EE0FFF0BE25DFC4F9183808308951F9250
S11306B00F920FB60F9211242F933F934F935F9392
S11306C06F937F938F939F93AF93BF93EF93FF9316
S11306D080910101882321F0D7DF1092010105C028
S11306E0D9DFA2DF81E080930101FF91EF91BF91F7
S11306F0AF919F918F917F916F915F914F913F91B6
S11307002F910F900FBE0F901F9018958FEF9FEFB2
S1130710909341038093400308950F931F93809116
S1130720020190910301A0910401B0910501BC0163
S113073055274427482759276A277B27DB01CA0105
S113074035E0B695A795979587953A95D1F784277F
S11307509527A627B727409106015091070160917C
S113076008017091090140930201509303016093C1
S113077004017093050100910A0110910B0120916D
S11307800C0130910D010093060110930701209391
S1130790080130930901042715272627372708273E
S11307A019272A273B27880F991FAA1FBB1F082731
S11307B019272A273B2700930A0110930B01209342
S11307C00C0130930D01B801C9011F910F910895D7
S11307D0CF93DF93EC01A1DF9B01AC0144275527A4
S11307E0DE0196DAAC0166277727CA01DF91CF9143
S11307F00895CF92DF92EF92FF92CF9370934D03BF
S113080060934C0340934E03A0E0B0E023E0880FD4
S1130810991FAA1FBB1F2A95D1F720E030E0F901E8
S1130820E65AFF4FC491CC2381F06C017D01022E66
S113083004C0F694E794D794C7940A94D2F741E09D
S1130840C416D406E104F10438F02F5F3F4F2B3077
S1130850310529F780E01BC0A1E0B0E002C0AA0F77
S1130860BB1F2A95E2F7A701960152DA28E030E08F
S113087040E050E016DA30934B0320934A03109281
S11308806E0082E084BDC5BDCA94C7BC81E0CF912F
S1130890FF90EF90DF90CF900895EEE6F0E0808136
S11308A082608083089578941F920F920FB60F92FE
S11308B011242F933F934F935F936F937F938F9361
S11308C09F93AF93BF93EF93FF9310926E00E091C9
S11308D04C03F0914D030995F89480914E038823BD
S11308E011F016BCA99A80916E00826080936E000C
S11308F0FF91EF91BF91AF919F918F917F916F91F4
S11309005F914F913F912F910F900FBE0F901F90C9
S11309101895CF93C82F80FF02C061E001C060E04A
S113092088E041D9C1FF02C061E001C060E08AE013
S11309303AD9C2FF02C061E001C060E087E033D968
S1130940C3FF02C061E001C060E083E0CF912BC926
S11309502F923F924F925F926F927F928F929F92CB
S1130960AF92BF92CF92DF92EF92FF920F931F93B9
S1130970CF93DF9300D000D000D0CDB7DEB7E82FFF
S1130980F0E0E331F10508F097C4E65EFF4F099407
S113099010929D0380E08FC430909E03B0909F031B
S11309A0C090A003D090A103E090A203F090A30311
S11309B0E091A4031091A503232D3B2DA601B701BB
S11309C08E2F912F03E047DA522E632E742E852E3C
S11309D0962E7983282E492E2091A603922F990FC3
S11309E0990BA32C0E2F392F492F592F692F792FAB
S11309F0892FA1D915EFA12EB12CC12CD12CE12C1A
S1130A00F12C00E010E08CD91091A70317FD1F5FB3
S1130A10A12EA594110F110BB12EC12ED12EE12EB2
S1130A20F12E012F88D959016A017B018C01252DF2
S1130A30362D472D582D692D7981822D942D70D90D
S1130A40232120939D03F8C3F0919E0380909F037C
S1130A509090A0031091A103E090A203F090A3034F
S1130A60B091A403A091A5032F2F382D492D512F08
S1130A70B7018B2F9A2F08E0FDD9E22FEB77009175
S1130A80A7032F2F382D492D512FB7018B2F9A2FC4
S1130A90F1D9E2230091A6032F2F382D492D512F90
S1130AA0B7018B2F9A2FE6D9E223EF9FE02D112473
S1130AB0E0939D03DFC3A091A703EA2FEE0FEE0B93
S1130AC0B0919E03B0909F03C090A003D090A10367
S1130AD0E090A203F090A3039090A403A090A50338
S1130AE02B2F3B2DA601B701892D9A2D01E0C2D9E8
S1130AF0A29FF02D1124AB9F802D1124F82B8091FF
S1130B00A60369E1AED80AE010E0081B110987FDCD
S1130B1013952B2F3B2DA601B701892D9A2DAAD908
S1130B20122F2A2F3E2F4E2F5E2F6E2F7E2F8E2FA9
S1130B309E2FAFE0AED9B29FB02D1124B123FB2B71
S1130B40F0939D03B7C390909E03A0919F0340919F
S1130B50A0035091A1036091A2037091A30380911B
S1130B60A4039091A5032091A603332727FD309574
S1130B70F9013396F7FF02C0F9013496F595E7952C
S1130B801F2F110F110B5F01C12ED12EE12EF12E5B
S1130B90012F292D3A2FC4D84091A703552747FD8B
S1130BA05095CA01029697FF02C0CA010396959513
S1130BB08795899D802D1124822780939D0384E04D
S1130BC07AC3F0919E0370909F038090A00390904D
S1130BD0A1031091A203E090A303F090A403B091A9
S1130BE0A5030091A7032F2F372DA401612F7E2D7C
S1130BF08F2D9B2F3FD92F9FE02D11242F2F372D81
S1130C00A401612F7E2D8F2D9B2F09E033D9E22B78
S1130C102F2F372DA401612F7E2D8F2D9B2F08E0C0
S1130C2029D92E72E2230091A6032F2F372DA40178
S1130C30612F7E2D8F2D9B2F1DD9A22FAF232F2FF8
S1130C40372DA401612F7E2D8F2D9B2F06E012D905
S1130C50A22BEA27E0939D0385E02DC320909E03F9
S1130C6020919F0329834090A0035090A10360909A
S1130C70A2037090A3038090A4039090A503322F45
S1130C80307120E040E050E060E070E080E090E00F
S1130C90A0E014D909F43FC0A090A7031A2D110FA6
S1130CA0110BB12EC12ED12EE12EF12E012F222DAA
S1130CB03981A201B301C40131D82225E9813E273B
S1130CC04425552566257725A22CBE2E6201730185
S1130CD08401882599252FD8322E132FB42FA52FC0
S1130CE0F62FE72F7C01222D3B2DA201B301C40175
S1130CF004E0C0D8322A132BB42BA52BF62BE72BF8
S1130D00232D312F4B2F5A2F6F2F7E2F8E299F2962
S1130D1001E0B0D819C00091A603222D3981A201A7
S1130D20B301C401A7D8E22F3981307220E040E03A
S1130D3050E060E070E080E090E0A0E0BFD811F007
S1130D40220C220C222D2E2B20939D0386E0B3C26D
S1130D50F0919E0380909F039090A0031091A103B3
S1130D60E090A203F090A303B091A403A091A50383
S1130D70E091A6032F2F382D492D512FB7018B2F2A
S1130D809A2F08E077D8E2232F2F382D492D512FA1
S1130D90B7018B2F9A2F03E06DD8E2230091A703AC
S1130DA02F2F382D492D512FB7018B2F9A2F62D811
S1130DB0E223EF9FE02D1124E0939D0387E07BC2A3
S1130DC0F0919E03E0909F03F090A0031091A10383
S1130DD0C090A203D090A303B091A403A091A50353
S1130DE02F2F3E2D4F2D512FB6018B2F9A2F02E01E
S1130DF032D80091A6033ED8EF2FEE0FEF0FE22377
S1130E000091A7032F2F3E2D4F2D512FB6018B2F6D
S1130E109A2F30D88F2F880F880F8F0F8223E82BBB
S1130E20E0939D0388E047C260909E0370909F0307
S1130E308090A0039090A103F091A203FE832091DF
S1130E40A3032B832090A4033090A5030091A70350
S1130E509301A4016F2F7B81C1010CD82901B42F08
S1130E60A52FFB0189839A839301A4016E817B8161
S1130E70C10105E0FFD7422A532AB42BA52BE62B48
S1130E80F72B53016401EE80FB80810192014B2F0B
S1130E905A2FBF01E9818E2BFA819F2B4CD7D22E7A
S1130EA0E32EF42E152FB62FA72FF82FE92F00913C
S1130EB0A6039301A4016E817B81C101DBD7022FBC
S1130EC02D2D3E2D4F2D512F6B2F7A2F8F2F9E2F8F
S1130ED0D1D720939D0389E0EEC1F0919E03E09069
S1130EE09F03F090A0031091A103C090A203D0909F
S1130EF0A303B091A403A091A5032F2F3E2D4F2D42
S1130F00512FB6018B2F9A2F02E0A5D70091A6038B
S1130F10B1D7EF2FEE0FEF0FE2230091A7032F2F8E
S1130F203E2D4F2D512FB6018B2F9A2FA3D78F2FE4
S1130F30880F880F8F0F8223E82BE0939D038AE0AC
S1130F40BAC1E0919E0380909F039090A0031091FA
S1130F50A103E090A203F090A303B091A403A09195
S1130F60A5032E2F382D492D512FB7018B2F9A2FE2
S1130F7007E080D7F22FFE2B0091A7032E2F382DE8
S1130F80492D512FB7018B2F9A2F74D7F22BFE9F27
S1130F90F02D11240091A6032E2F382D492D512F09
S1130FA0B7018B2F9A2F66D7722E2E2F382D492DED
S1130FB0512FB7018B2F9A2F0BE05CD7722AF721A0
S1130FC0F0939D038BE077C1F0919E0380909F0383
S1130FD09090A0031091A103E090A203F090A303CA
S1130FE0B091A403A091A5032F2F382D492D512F83
S1130FF0B7018B2F9A2F06E03DD7E22FEF2B0091FC
S1131000A7032F2F382D492D512FB7018B2F9A2F3E
S113101031D7022F2F2F382D492D512FB7018B2F68
S11310209A2F28D7E22B2F2F382D492D512FB70176
S11310308B2F9A2F0BE01ED78091A60382232AE0E0
S1131040E29F800D112480939D038CE034C1409075
S11310509E0350909F036090A0037090A103809022
S1131060A2039090A3032090A4033090A503E091E1
S1131070A703FF27E7FDF09574969F2F990F990B0F
S113108052016301740181019F01492F592F692F76
S1131090792F892F50D609E0EDD6E22F9201A301D2
S11310A0B401C10101E0D7D659016A017B01F82FCF
S11310B0192F02E0D0D60F2FF8D659016A017B010F
S11310C0F82F192F03E0C7D60F2FEFD60091A603F0
S11310D0D1D6E22BE0939D038DE0EDC040909E03BA
S11310E050909F036090A0037090A1038090A2038E
S11310F09090A3032090A4033090A503E091A7034C
S1131100FF27E7FDF09574969F2F990F990B5201D5
S11311106301740181019F01492F592F692F792F90
S1131120892F09D608E0A6D6E22F9201A301B401C3
S1131130C10101E090D659016A017B01F82F192FF2
S113114002E089D60F2FB1D659016A017B01F82F2D
S1131150192F03E080D60F2FA8D60091A6038AD6B4
S1131160E22BE0939D038EE0A6C060909E038090E6
S11311709F039090A003B090A103C090A203D090CD
S1131180A303E090A403F090A5030091A703262DE8
S1131190382D492D5B2DB601C7016CD6122F532E65
S11311A0B42FA52FF62FE72F782EA92E262D382D14
S11311B0492D5B2DB601C7010AE05CD6122B532AD8
S11311C0B42BA52BF62BE72B212F352D4B2F5A2F84
S11311D06F2F7E2F87299A29AEEF5BD6EBE0AE2ED8
S11311E0B12CC12CD12CE12CF12C00E010E096D5CF
S11311F0269D202D11248091A603282320939D034E
S11312008FE059C0E0919E0330919F034091A00369
S11312105091A1036091A2037091A3030091A703CD
S11312202E2F8091A4039091A50324D68091A60328
S11312308E23822B80939D0381E03DC0E0919E0329
S113124030919F034091A0035091A1036091A203A8
S11312507091A3030091A703000F110B2E2F80910F
S1131260A4039091A50306D68091A6038E23822B16
S113127080939D0382E01FC020919E0330919F03C1
S11312804091A0035091A1036091A2037091A30324
S11312900091A703E091A603EE0FEE0FE223E350C3
S11312A0000F110B8091A4039091A503E3D5E22BC9
S11312B0E0939D0383E02DDB80919D0326960FB67A
S11312C0F894DEBF0FBECDBFDF91CF911F910F9178
S11312D0FF90EF90DF90CF90BF90AF909F908F9052
S11312E07F906F905F904F903F902F9008958091E2
S11312F0A9039091AA0368E370E0C0D46093B20399
S11313008091AB039091AC0324E630E0B901B6D4EC
S11313106093A7038091AD039091AE03B901AED45D
S11313206093A6030895F6C72FB7F894AB01662718
S113133057FD6095762FBA0155274427E6E0769548
S1131340679557954795EA95D1F7FC0144835583F2
S1131350668377832FBF089562E080E0ECD362E078
S113136081E0E9D362E082E0E6D362E085E0E3D3A2
S113137062E084E0E0D360E08EE0DDD360E08FE003
S1131380DAD360E080E1D7D360E081E1D4D360E0D8
S113139082E1D1D360E083E1CED361E088E0CBD3B6
S11313A061E08AE0C8D361E087E0C5D368EB71E00F
S11313B083E993E0B9DF68EB71E089E893E0B4DF97
S11313C068EB71E08FE793E0AFDF68EB71E08BE6E9
S11313D093E0AADF68EB71E081E693E0A5DF68EBB8
S11313E071E087E593E0A0DF65E070E085E793E0D6
S11313F09BDF10924F0380E490E006C8CF93DF9305
S11314008091A8036091A9037091AA03811112C06D
S113141083E993E089DF6091AB037091AC038BE6C1
S113142093E082DF6091AD037091AE0389E893E0AD
S11314307BDF29C08091120190911301689FE00124
S1131440699FD00D789FD00D112483E993E06CDF60
S1131450BE0189E893E068DF6091AD037091AE034B
S11314608FE793E061DF8091AB039091AC03AA27EF
S113147097FDA095BA2F80930E0190930F01A0932E
S11314801001B09311018091AF03813009F03EC087
S11314906091A9037091AA0383E993E045DF609109
S11314A0AB037091AC038BE693E03EDF8091AD0318
S11314B09091AE0367E170E0E1D381E693E034DF1D
S11314C080E091E085D92FB7F894A0E0B0E0DC018A
S11314D0992788278093930390939403A09395036B
S11314E0B09396032FBF80E091E072D92FB7F894A0
S11314F0A0E0B0E0DC019927882780936B039093E8
S11315006C03A0936D03B0936E032FBF8091B0035F
S11315109091B10361E370E0B1D385E793E0DF918B
S1131520CF9102CFCF9385E074D38093B30384E04B
S113153070D38093B40380E06CD38093B50381E0CF
S113154068D38093B60382E064D38093B7038EE0BC
S11315504DD89093AA038093A9038FE047D8909322
S1131560AC038093AB0380E141D89093AE038093A6
S1131570AD0381E13BD89093B1038093B00382E142
S113158035D89093B9038093B80383E12FD880931F
S1131590BA039093BB032091B80320935003909116
S11315A04F032095299F90011124232F3327290FBE
S11315B0311D309352032093510380934F03C09104
S11315C0B70380E0C13021F4A4D9C093BC031FC089
S11315D0A0D91092BC03C091B503C13031F461E0CD
S11315E088E0E1D2C093AF0305C01092AF0360E07E
S11315F088E0D9D28091B603813021F48093A80386
S113160061E003C01092A80360E08AE0CCD280912C
S1131610B30381110DC08091BD03811104C081E029
S11316208093BD0302C01092BD0380E991E014D2FF
S11316309091BE038091B403911105C0813061F48F
S11316408093140106C0913039F4811105C01092C1
S1131650140180E991E000D28091B4038093BE0329
S11316608091BC03811102C0CF91C8CECF913FCEEF
S11316700F931F93FC01448155816681778100811A
S1131680118122813381400F511F621F731F4083D8
S11316905183628373830084F185E02DE60FF11D8D
S11316A084911F910F910895CF92DF92EF92FF9250
S11316B00F931F93FC01048115812681378180815A
S11316C09181A281B381080F191F2A1F3B1F008338
S11316D0118322833383CC24D42EE52EF62EC00E20
S11316E0D11EE21EF31E0084F185E02DEE0DF11DE6
S11316F084911F910F91FF90EF90DF90CF90089508
S11317008F929F92AF92BF92CF92DF92EF92FF920D
S11317100F931F93CF93DF9300D000D0CDB7DEB7E4
S11317208091BC03811191C08091A803811124C0D0
S113173083E993E09DDFF82E85E793E099DF082F96
S11317408BE693E095DF182F85E793E091DF18028D
S1131750C00111244F2D400290011124B92EB30E63
S113176089E893E085DF182F85E793E081DF18028D
S1131770C0011124B90E3BC08130C1F520910E0186
S113178030910F01409110015091110183E993E0D0
S113179029833A834B835C836BDFA82FBB27A7FD88
S11317A0B09529813A814B815C81B2D26B017C0175
S11317B085E793E05DDF182FB701A60189E893E080
S11317C073DF082FB701A6018FE793E06DDF282FA1
S11317D0332727FD3095200F311D07FD3A9512035D
S11317E0A001139F500D1124B52E01C0B12C80917E
S11317F0AF03813009F04FC083E993E039DF182F3C
S11318008BE693E035DF882E81E693E031DF082F05
S113181085E793E02DDF992487FC9094810E911C39
S113182017FD9A94959487940802C0011124292FD6
S1131830332727FD3A95820E931E8B0C911CB7FC1F
S11318409A9495948794B82C26C020919E03309145
S11318509F034091A0035091A1036091A203709152
S1131860A3038091A4039091A503A1E012D3209334
S11318709E0330939F034093A0035093A10360936E
S1131880A2037093A3038093A4039093A503809170
S1131890B2035ED8B82E8091BD03813009F050C0E8
S11318A0109150034091530350915403E091550318
S11318B0F0915603DA01AE1BBF0B20915103309116
S11318C052036A01EE24D7FCE094FE2C8B2C99245D
S11318D087FC9094841A950AAA2497FCA094BA2CA5
S11318E007D2BB2797FDBA95A92F982F872F880E6B
S11318F0991EAA1EBB1EA12FB0E0A5019401FED122
S1131900BB2797FDBA95A92F982F872FC80ED91EEC
S1131910EA1EFB1E9601D0925403C09253032E1B61
S11319203F0B129FC001139F900D1124892F990F13
S1131930990B8E0F9F1F9093560380935503B82ED7
S1131940809114019B2D980240011124C4010F9031
S11319500F900F900F90DF91CF911F910F91FF90F7
S1131960EF90DF90CF90BF90AF909F908F900895AD
S113197085E690E090939C0380939B03909392035D
S113198080939103909388038093870385E691E085
S113199090937E0380937D039093740380937303E9
S11319A090936A03809369039093600380935F0329
S11319B008955CD0D1DCC0E0D0E0B5DC2097E9F339
S11319C01FD3FBCF1F920F920FB60F9211242F93A8
S11319D03F938F939F93AF93BF938091BF03909155
S11319E0C003A091C103B091C2033091C703232F58
S11319F02A5F2D3720F40296A11DB11D05C0232FA7
S1131A0027570396A11DB11D2093C7038093BF03DD
S1131A109093C003A093C103B093C2038091C30306
S1131A209091C403A091C503B091C6030196A11D72
S1131A30B11D8093C3039093C403A093C503B093D3
S1131A40C603BF91AF919F918F913F912F910F90BA
S1131A500FBE0F901F901895019739F0019729F048
S1131A60880F991F01970197F1F70895789484B529
S1131A70826084BD84B5816084BD85B5826085BD86
S1131A8085B5816085BDEEE6F0E08081816080836C
S1131A90E1E8F0E01082808182608083808181604F
S1131AA08083E0E8F0E0808181608083E1EBF0E016
S1131AB0808184608083E0EBF0E0808181608083BA
S1131AC0EAE7F0E0808184608083808182608083A3
S1131AD08081816080838081806880831092C100CE
S1131AE00895833069F028F48130A1F0823011F533
S1131AF014C08630B1F08730C1F08430D9F404C00A
S1131B00809180008F7703C0809180008F7D8093C7
S1131B108000089584B58F7702C084B58F7D84BD1D
S1131B2008958091B0008F7703C08091B0008F7DBD
S1131B308093B0000895CF93DF9390E0FC01E758C1
S1131B40FD4F4491FC01E357FD4F8491882341F1FB
S1131B5090E0880F991FFC01EB54FD4F25913491BF
S1131B60D90185559D4FFC0185919491C82FD92F9A
S1131B709FB7F8948C91611106C0409584238C938F
S1131B808881842308C0623041F4242F2095822365
S1131B908C938881842B888302C0842B8C939FBF71
S1131BA0DF91CF9108950F931F93CF93DF931F92EB
S1131BB0CDB7DEB7282F30E0F901EB59FD4F849102
S1131BC0F901E758FD4F1491F901E357FD4F0491D2
S1131BD00023C9F0882319F0698383DF6981E02F2A
S1131BE0F0E0EE0FFF1FE555FD4F85919491DC0168
S1131BF09FB7F8948C91611103C01095812301C0A3
S1131C00812B8C939FBF0F90DF91CF911F910F91E8
S1131C100895CF93DF93282F30E0F901EB59FD4F5E
S1131C208491F901E758FD4FD491F901E357FD4F31
S1131C30C491CC2381F0811154DFEC2FF0E0EE0F3E
S1131C40FF1FEF55FD4F85919491DC018C918D23FD
S1131C5021E030E011F420E030E0C901DF91CF91C0
S1131C60089587FB082E062687FD819567FD6195FB
S1131C7031D10EF4919507FC8195089597FB072EB9
S1131C8016F4009406D077FD08D030D107FC05D0B7
S1131C903EF4909581959F4F0895709561957F4F7F
S1131CA00895052E97FB16F4009406D057FD0CD02A
S1131CB031D107FC09D07EF490958095709561959B
S1131CC07F4F8F4F9F4F08955095409530952195A4
S1131CD03F4F4F4F5F4F0895A29FB001B39FC00184
S1131CE0A39F01D0B29F700D811D1124911D0895F1
S1131CF0F3DFB7FF0895821B930B0895EDDFA59FD3
S1131D00900DB49F900DA49F800D911D11240895F2
S1131D10B7FFF4CFF3DF821B930B0895689401C0DF
S1131D20E8948F929F92CF93DF9356D0DF91CF9117
S1131D309F908F900895DF93CF931F930F939A9D55
S1131D40F02D219FF00D8B9DF00D8A9DE02DF10D5E
S1131D50039FF00D029FE00DF11D4E9DE00DF11D5E
S1131D605E9DF00D4F9DF00D7F936F93BF92AF92E8
S1131D705F934F93D501B0DF8B01AC01D701ACDF8A
S1131D80EB01E80FF91FD6011FD02F913F91D60127
S1131D90A3DFC60FD71FE81FF91FAF91BF9114D05F
S1131DA02F913F9199DFC60FD71FE81FF91FD60166
S1131DB093DFE60FF71F9801BE01CF0111240F91A5
S1131DC01F91CF91DF91089587DF460F571FC81FDA
S1131DD0D91F08F43196089588249924F401E40164
S1131DE0B0E41B2ED4019D158E049F04E007F10777
S1131DF038F4FC014B01CA01B901AD019E011694EE
S1131E00220F331F441F551F661F771F881F991FFA
S1131E10881C991CEE1FFF1FCC1FDD1FAA1FBB1FB0
S1131E208A149B04EC05FD05CE05DF05A007B10768
S1131E3048F08A189B08EC09FD09CE09DF09A00BBC
S1131E40B10B21601A94E1F62EF49401AF01BE01A6
S1131E50CD01000C08950F930F7351F0220F331F1F
S1131E60441F551F661F771F881F991F0A95B1F7D6
S1131E700F9108950F930F7351F096958795779569
S1131E80679557954795379527950A95B1F70F911B
S1131E9008950024A7FD00942A0F301D401D501DF5
S1131EA0601D701D801D901D08952A193B094C0961
S1131EB05D096E097F09800B910B08950024A7FD2D
S1131EC000942A173005400550056005700580050B
S1131ED090050895991B79E004C0991F961708F09E
S1131EE0961B881F7A95C9F780950895AA1BBB1B7A
S1131EF051E107C0AA1FBB1FA617B70710F0A61B06
S1131F00B70B881F991F5A95A9F780959095BC0126
S1131F10CD010895A1E21A2EAA1BBB1BFD010DC021
S1131F20AA1FBB1FEE1FFF1FA217B307E407F50785
S1131F3020F0A21BB30BE40BF50B661F771F881F61
S1131F40991F1A9469F760957095809590959B01F7
S1131F50AC01BD01CF010895EE0FFF1F0590F49170
S10B1F60E02D0994F894FFCF71
S1131F68FF015521E507E5559A15B53B121F2C01CC
S1091F780000030001005B
S9030000FC
