:100000000C947C090C94A4090C94A4090C94A409E4
:100010000C94A4090C94A4090C94A4090C94A409AC
:100020000C94A4090C94A4090C94A4090C94A4099C
:100030000C94A4090C94E8090C94860C0C94A40963
:100040000C94EF170C94A4090C94A4090C94A40923
:100050000C94A4090C94830B0C94A4090C94A4098B
:100060000C94A4090C94A409000D040D6F0DA90DA6
:10007000F50D340E860E070F420F790FD70F0E10B5
:1000800055109C10EB103A118B11A811C7110100EB
:1000900000020000030004000580808080808080D2
:1000A000808181818181818181828282828282823A
:1000B000828283838383838383848484848484840B
:1000C00084848585858585858586868686868686DB
:1000D00086878787878787878788888888888888AA
:1000E0008889898989898989898A8A8A8A8A8A8A7A
:1000F0008A8A8B8B8B8B8B8B8B8B8C8C8C8C8C8C4C
:100100008C8D8D8D8D8D8D8D8D8D8E8E8E8E8E8E1A
:100110008E8F8F8F8F8F8F8F8F90909090909090E9
:1001200090919191919191919192929292929292B9
:100130009293939393939393939494949494949489
:10014000949495959595959595969696969696965A
:10015000969697979797979797979898989898982B
:10016000989899999999999999999A9A9A9A9A9AFB
:100170009A9B9B9B9B9B9B9B9B9B9C9C9C9C9C9CCA
:100180009C9C9D9D9D9D9D9D9D9E9E9E9E9E9E9E9A
:100190009E9F9F9F9F9F9F9F9F9FA0A0A0A0A0A06A
:1001A000A0A1A1A1A1A1A1A1A1A2A2A2A2A2A2A239
:1001B000A2A3A3A3A3A3A3A3A3A4A4A4A4A4A4A409
:1001C000A4A4A5A5A5A5A5A5A5A6A6A6A6A6A6A6DA
:1001D000A6A7A7A7A7A7A7A7A7A8A8A8A8A8A8A8A9
:1001E000A8A8A9A9A9A9A9A9A9A9AAAAAAAAAAAA7B
:1001F000AAABABABABABABABABACACACACACACAC49
:10020000ACADADADADADADADADAEAEAEAEAEAEAE18
:10021000AEAFAFAFAFAFAFAFAFAFB0B0B0B0B0B0E9
:10022000B0B0B1B1B1B1B1B1B1B2B2B2B2B2B2B2B9
:10023000B2B3B3B3B3B3B3B3B3B4B4B4B4B4B4B488
:10024000B4B5B5B5B5B5B5B5B5B6B6B6B6B6B6B658
:10025000B6B7B7B7B7B7B7B7B7B8B8B8B8B8B8B828
:10026000B8B8B9B9B9B9B9B9B9BABABABABABABAF9
:10027000BABBBBBBBBBBBBBBBBBCBCBCBCBCBCBCC8
:10028000BCBDBDBDBDBDBDBDBDBDBEBEBEBEBEBE99
:10029000BEBFBFBFBFBFBFBFBFC0C0C0C0C0C0C068
:1002A000C0C1C1C1C1C1C1C1C1C1C2C2C2C2C2C239
:1002B000C2C2C3C3C3C3C3C3C3C4C4C4C4C4C4C409
:1002C000C4C4C5C5C5C5C5C5C5C5C6C6C6C6C6C6DA
:1002D000C6C7C7C7C7C7C7C7C7C8C8C8C8C8C8C8A8
:1002E000C8C9C9C9C9C9C9C9C9CACACACACACACA78
:1002F000CACBCBCBCBCBCBCBCBCBCCCCCCCCCCCC49
:10030000CCCCCDCDCDCDCDCDCDCDCECECECECECE19
:10031000CECFCFCFCFCFCFCFCFD0D0D0D0D0D0D0E7
:10032000D0D1D1D1D1D1D1D1D1D2D2D2D2D2D2D2B7
:10033000D2D2D3D3D3D3D3D3D3D4D4D4D4D4D4D488
:10034000D4D4D5D5D5D5D5D5D5D6D6D6D6D6D6D658
:10035000D6D6D7D7D7D7D7D7D7D8D8D8D8D8D8D828
:10036000D8D9D9D9D9D9D9D9D9D9DADADADADADAF8
:10037000DADADBDBDBDBDBDBDBDCDCDCDCDCDCDCC8
:10038000DCDCDDDDDDDDDDDDDDDDDEDEDEDEDEDE99
:10039000DEDFDFDFDFDFDFDFDFDFE0E0E0E0E0E068
:1003A000E0E1E1E1E1E1E1E1E1E2E2E2E2E2E2E237
:1003B000E2E2E3E3E3E3E3E3E3E4E4E4E4E4E4E408
:1003C000E4E5E5E5E5E5E5E5E5E6E6E6E6E6E6E6D7
:1003D000E6E7E7E7E7E7E7E7E7E7E8E8E8E8E8E8A8
:1003E000E8E9E9E9E9E9E9E9E9EAEAEAEAEAEAEA77
:1003F000EAEBEBEBEBEBEBEBEBECECECECECECEC47
:10040000ECECEDEDEDEDEDEDEDEDEEEEEEEEEEEE18
:10041000EEEEEFEFEFEFEFEFEFF0F0F0F0F0F0F0E7
:10042000F0F0F1F1F1F1F1F1F1F1F2F2F2F2F2F2B8
:10043000F2F3F3F3F3F3F3F3F3F4F4F4F4F4F4F486
:10044000F4F4F5F5F5F5F5F5F5F6F6F6F6F6F6F657
:10045000F6F7F7F7F7F7F7F7F7F8F8F8F8F8F8F826
:10046000F8F8F9F9F9F9F9F9F9F9FAFAFAFAFAFAF8
:10047000FAFBFBFBFBFBFBFBFBFCFCFCFCFCFCFCC6
:10048000FCFDFDFDFDFDFDFDFDFDFEFEFEFEFEFE97
:10049000FEFFFFFFFFFFFFFFFF0000000000000066
:1004A0000000010101010101010102020202020238
:1004B0000203030303030303030404040404040406
:1004C00004050505050505050506060606060606D6
:1004D00006070707070707070707080808080808A7
:1004E0000809090909090909090A0A0A0A0A0A0A76
:1004F0000A0B0B0B0B0B0B0B0B0B0C0C0C0C0C0C47
:100500000C0D0D0D0D0D0D0D0D0D0E0E0E0E0E0E16
:100510000E0F0F0F0F0F0F0F0F0F101010101010E6
:1005200010101111111111111112121212121212B6
:100530001213131313131313131414141414141485
:100540001415151515151515151516161616161656
:100550001617171717171717171818181818181825
:10056000181919191919191919191A1A1A1A1A1AF6
:100570001A1A1B1B1B1B1B1B1B1C1C1C1C1C1C1CC6
:100580001C1D1D1D1D1D1D1D1D1E1E1E1E1E1E1E95
:100590001E1F1F1F1F1F1F1F1F1F20202020202066
:1005A0002021212021212221212022222222222237
:1005B0002223232323232323232424242424242405
:1005C00024242525252525252526262626262626D6
:1005D00026272727272727272728282828282828A5
:1005E0002829292929292929292A2A2A2A2A2A2A75
:1005F0002A2A2B2B2B2B2B2B2B2B2C2C2C2C2C2C47
:100600002C2D2D2D2D2D2D2D2D2E2E2E2E2E2E2E14
:100610002E2E2F2F2F2F2F2F2F2F303030303030E6
:1006200030313131313131313132323232323232B4
:100630003233333333333333333334343434343485
:100640003435353535353535353636363636363654
:100650003636373737373737373738383838383826
:10066000383939393939393939393A3A3A3A3A3AF5
:100670003A3A3B3B3B3B3B3B3B3C3C3C3C3C3C3CC5
:100680003C3D3D3D3D3D3D3D3D3E3E3E3E3E3E3E94
:100690003E3F3F3F3F3F3F3F3F4040404040404064
:1006A0004041414141414141414242424242424234
:1006B0004243434343434343434444444444444404
:1006C00044454545454545454546464646464646D4
:1006D00046464747474747474748484848484848A5
:1006E0004849494949494949494A4A4A4A4A4A4A74
:1006F0004A4A4B4B4B4B4B4B4B4C4C4C4C4C4C4C45
:100700004C4C4D4D4D4D4D4D4D4D4E4E4E4E4E4E15
:100710004E4F4F4F4F4F4F4F4F50505050505050E3
:1007200050505151515151515152525252525252B4
:100730005252535353535353535454545454545484
:100740005454555555555555555656565656565654
:100750005656575757575757575858585858585824
:10076000585859595959595959595A5A5A5A5A5AF5
:100770005A5B5B5B5B5B5B5B5B5C5C5C5C5C5C5CC3
:100780005C5D5D5D5D5D5D5D5D5E5E5E5E5E5E5E93
:100790005E5F5F5F5F5F5F5F5F6060606060606063
:1007A0006061616161616161616162626262626234
:1007B0006263636363636363636364646464646404
:1007C00064656565656565656565666666666666D4
:1007D00066676767676767676768686868686868A3
:1007E0006869696969696969696A6A6A6A6A6A6A73
:1007F0006A6B6B6B6B6B6B6B6B6C6C6C6C6C6C6C43
:100800006C6D6D6D6D6D6D6D6D6E6E6E6E6E6E6E12
:100810006E6F6F6F6F6F6F6F6F70707070707070E2
:1008200070717171717171717171727272727272B3
:100830007273737373737373737474747474747482
:100840007474757575757575757576767676767654
:100850007677777777777777777778787878787823
:10086000787879797979797979797A7A7A7A7A7AF4
:100870007A7B7B7B7B7B7B7B7B7C7C7C7C7C7C7CC2
:100880007C7D7D7D7D7D7D7D7D7D7E7E7E7E7E7E93
:100890007E7F7F7F7F7F7F7F7F00010204050708C7
:1008A000090B0C0E0F101213151617191A1B1D1E0B
:1008B00020212224252628292A2C2D2E2F3132339F
:1008C000353637383A3B3C3D3E404142434445464D
:1008D00047494A4B4C4D4E4F505152535455565721
:1008E0005859595A5B5C5D5E5E5F60616262636429
:1008F0006465666667686869696A6A6B6B6C6C6D6B
:100900006D6E6E6F6F6F70707070717171717272E9
:1009100072727272727373737373737373737272AE
:10092000727272727271717171707070706F6F6FBC
:100930006E6E6D6D6C6C6B6B6A6A69696868676610
:100940006665646463626261605F5E5E5D5C5B5AA3
:1009500059595857565554535251504F4E4D4C4B70
:100960004A4947464544434241403E3D3C3B3A3874
:100970003736353332312F2E2D2C2A29282625249F
:100980002221201E1D1C1A191716151312100F0EE6
:100990000C0B0908070504020100FEFDFBFAF8F73D
:1009A000F6F4F3F1F0EFEDECEAE9E8E6E5E4E2E194
:1009B000DFDEDDDBDAD9D7D6D5D3D2D1D0CECDCCE0
:1009C000CAC9C8C7C5C4C3C2C1BFBEBDBCBBBAB912
:1009D000B8B6B5B4B3B2B1B0AFAEADACABAAA9A81E
:1009E000A7A6A6A5A4A3A2A1A1A09F9E9D9D9C9BF6
:1009F0009B9A999998979796969595949493939294
:100A00009291919090908F8F8F8F8E8E8E8E8D8DF4
:100A10008D8D8D8D8D8C8C8C8C8C8C8C8C8C8C8D10
:100A20008D8D8D8D8D8E8E8E8E8F8F8F8F909090E1
:100A3000919192929393949495959696979798996D
:100A4000999A9B9B9C9D9D9E9FA0A1A1A2A3A4A5BA
:100A5000A6A6A7A8A9AAABACADAEAFB0B1B2B3B4CD
:100A6000B5B6B8B9BABBBCBDBEC0C1C2C3C4C5C7A8
:100A7000C8C9CACCCDCED0D1D2D3D5D6D7D9DADB5E
:100A8000DDDEDFE1E2E4E5E6E8E9EAECEDEFF0F1F6
:100A9000F3F4F6F7F8FAFBFDFE0000000101010295
:100AA00002030303040405050506060707070808F3
:100AB0000909090A0A0A0B0B0C0C0C0D0D0E0E0E7F
:100AC0000F0F10101011111212121313131414150A
:100AD0001515161617171718181819191A1A1A1B98
:100AE0001B1C1C1C1D1D1D1E1E1F1F1F2020202126
:100AF00021222222232324242425252526262727B4
:100B00002728282829292A2A2A2B2B2B2C2C2C2D44
:100B10002D2E2E2E2F2F2F303030313132323233D6
:100B2000333334343435353636363737373838386A
:100B30003939393A3A3A3B3B3B3C3C3D3D3D3E3E00
:100B40003E3F3F3F40404041414142424243434398
:100B50004444444545454646464747474848484932
:100B600049494A4A4A4A4B4B4B4C4C4C4D4D4D4ED1
:100B70004E4E4F4F4F4F5050505151515252525371
:100B80005353535454545555555556565657575715
:100B900057585858595959595A5A5A5B5B5B5B5CBC
:100BA0005C5C5C5D5D5D5E5E5E5E5F5F5F5F606066
:100BB0006060616161616262626263636363646415
:100BC00064646565656566666666676767676768C6
:100BD00068686869696969696A6A6A6A6B6B6B6B7C
:100BE0006B6C6C6C6C6C6D6D6D6D6D6E6E6E6E6E37
:100BF0006F6F6F6F6F7070707070717171717171F4
:100C000072727272727373737373737474747474B4
:100C1000747575757575757576767676767677777B
:100C20007777777777777878787878787879797947
:100C300079797979797A7A7A7A7A7A7A7A7A7B7B17
:100C40007B7B7B7B7B7B7B7B7C7C7C7C7C7C7C7CEC
:100C50007C7C7C7D7D7D7D7D7D7D7D7D7D7D7D7DC7
:100C60007E7E7E7E7E7E7E7E7E7E7E7E7E7E7E7EA4
:100C70007E7F7F7F7F7F7F7F7F7F7F7F7F7F7F7F85
:100C80007F7F7F7F7F7F7F7F7F7F7F7F7F7F7F7F74
:100C90007F7F7F7F7F7F7F7F7F7F7F7F7F7F7F7F64
:100CA0007F7F7F7F7F7F7F7F7F7F7F7F7F7F7F7F54
:100CB0007F7F7F7F7F7F7F7F7F7F7F7F7F7F7F7F44
:100CC0007F7F7E7E7E7E7E7E7E7E7E7E7E7E7E7E42
:100CD0007E7E7E7D7D7D7D7D7D7D7D7D7D7D7D7D41
:100CE0007C7C7C7C7C7C7C7C7C7C7C7B7B7B7B7B49
:100CF0007B7B7B7B7B7A7A7A7A7A7A7A7A7A797951
:100D00007979797979797878787878787877777760
:100D10007777777776767676767676757575757574
:100D2000757574747474747473737373737372728B
:100D300072727271717171717170707070706F6FA9
:100D40006F6F6F6E6E6E6E6E6D6D6D6D6D6C6C6CCB
:100D50006C6C6B6B6B6B6B6A6A6A6A6A69696969EE
:100D60006868686867676767676666666665656519
:100D70006564646464636363636262626261616147
:100D800061606060605F5F5F5F5E5E5E5E5D5D5D77
:100D90005C5C5C5C5B5B5B5B5A5A5A5959595958AD
:100DA00058585757575756565655555555545454E5
:100DB000535353535252525151515050504F4F4F21
:100DC0004F4E4E4E4D4D4D4C4C4C4B4B4B4A4A4A60
:100DD0004A494949484848474747464646454545A0
:100DE0004444444343434242424141414040403FE6
:100DF0003F3F3E3E3E3D3D3D3C3C3B3B3B3A3A3A2D
:100E00003939393838383737373636363535343476
:100E10003433333332323231313030302F2F2F2EC2
:100E20002E2E2D2D2C2C2C2B2B2B2A2A2A2929280F
:100E3000282827272726262525252424242323225E
:100E4000222222212120201F1F1F1E1E1D1D1D1CAE
:100E50001C1C1B1B1A1A1A19191818181717171601
:100E60001615151514141313131212121111101054
:100E7000100F0F0E0E0E0D0D0C0C0C0B0B0A0A0AA8
:100E800009090908080707070606050505040403FC
:100E9000030302020101010000FFFFFFFEFEFEFD51
:100EA000FDFCFCFCFBFBFAFAFAF9F9F8F8F8F7F7A5
:100EB000F6F6F6F5F5F5F4F4F3F3F3F2F2F1F1F1F9
:100EC000F0F0EFEFEFEEEEEDEDEDECECECEBEBEA4E
:100ED000EAEAE9E9E8E8E8E7E7E7E6E6E5E5E5E4A0
:100EE000E4E3E3E3E2E2E2E1E1E0E0E0DFDFDFDEF2
:100EF000DEDDDDDDDCDCDBDBDBDADADAD9D9D8D844
:100F0000D8D7D7D7D6D6D6D5D5D4D4D4D3D3D3D291
:100F1000D2D1D1D1D0D0D0CFCFCFCECECDCDCDCCE0
:100F2000CCCCCBCBCBCACAC9C9C9C8C8C8C7C7C72C
:100F3000C6C6C6C5C5C5C4C4C4C3C3C2C2C2C1C176
:100F4000C1C0C0C0BFBFBFBEBEBEBDBDBDBCBCBCBE
:100F5000BBBBBBBABABAB9B9B9B8B8B8B7B7B7B604
:100F6000B6B6B5B5B5B5B4B4B4B3B3B3B2B2B2B145
:100F7000B1B1B0B0B0B0AFAFAFAEAEAEADADADAC85
:100F8000ACACACABABABAAAAAAAAA9A9A9A8A8A8C1
:100F9000A8A7A7A7A6A6A6A6A5A5A5A4A4A4A4A3FA
:100FA000A3A3A3A2A2A2A1A1A1A1A0A0A0A09F9F30
:100FB0009F9F9E9E9E9E9D9D9D9D9C9C9C9C9B9B61
:100FC0009B9B9A9A9A9A9999999998989898989790
:100FD00097979796969696969595959594949494BA
:100FE00094939393939392929292929191919191DF
:100FF00090909090908F8F8F8F8F8E8E8E8E8E8E02
:101000008D8D8D8D8D8C8C8C8C8C8C8B8B8B8B8B20
:101010008B8A8A8A8A8A8A8A898989898989898838
:10102000888888888888878787878787878686864D
:10103000868686868685858585858585858584845D
:101040008484848484848484838383838383838368
:10105000838383828282828282828282828282826D
:101060008181818181818181818181818181818170
:10107000818080808080808080808080808080806F
:101080008080808080808080808080808080808060
:101090008080808080808080808080808080808050
:1010A0008080808080808080808080808080808040
:1010B0008080808080808080808080808080808030
:1010C0008080818181818181818181818181818112
:1010D00081818182828282828282828282828282F3
:1010E00083838383838383838383838484848484CB
:1010F00084848484848585858585858585858686A3
:101100008686868686868787878787878788888872
:1011100088888888888989898989898A8A8A8A8A3F
:101120008A8A8B8B8B8B8B8B8C8C8C8C8C8C8D8D07
:101130008D8D8D8E8E8E8E8E8E8F8F8F8F8F9090C9
:101140009090909191919191929292929293939387
:101150009393949494949495959595969696969643
:10116000979797979898989898999999999A9A9AF9
:101170009A9B9B9B9B9C9C9C9C9D9D9D9D9E9E9EAB
:101180009E9F9F9F9FA0A0A0A0A1A1A1A1A2A2A25B
:10119000A3A3A3A3A4A4A4A4A5A5A5A6A6A6A6A705
:1011A000A7A7A8A8A8A8A9A9A9AAAAAAAAABABABAD
:1011B000ACACACACADADADAEAEAEAFAFAFB0B0B051
:1011C000B0B1B1B1B2B2B2B3B3B3B4B4B4B5B5B5F2
:1011D000B5B6B6B6B7B7B7B8B8B8B9B9B9BABABA92
:1011E000BBBBBBBCBCBCBDBDBDBEBEBEBFBFBFC02C
:1011F000C0C0C1C1C1C2C2C2C3C3C4C4C4C5C5C5C5
:10120000C6C6C6C7C7C7C8C8C8C9C9C9CACACBCB5A
:10121000CBCCCCCCCDCDCDCECECFCFCFD0D0D0D1EE
:10122000D1D1D2D2D3D3D3D4D4D4D5D5D5D6D6D781
:10123000D7D7D8D8D8D9D9DADADADBDBDBDCDCDD12
:10124000DDDDDEDEDEDFDFE0E0E0E1E1E2E2E2E3A1
:10125000E3E3E4E4E5E5E5E6E6E7E7E7E8E8E8E92F
:10126000E9EAEAEAEBEBECECECEDEDEDEEEEEFEFBC
:10127000EFF0F0F1F1F1F2F2F3F3F3F4F4F5F5F548
:10128000F6F6F6F7F7F8F8F8F9F9FAFAFAFBFBFCD4
:10129000FCFCFDFDFEFEFEFFFF000000070002015A
:1012A000000003040600000000000000000102042A
:1012B00008102040800102040810200102040810D8
:1012C00020040404040404040402020202020203CF
:1012D000030303030300000000230026002900008D
:1012E000000000250028002B00000000002400273B
:1012F000002A0000B50B3E1611241FBECFEFD8E028
:10130000DEBFCDBF11E0A0E0B1E0ECE6F6E302C045
:1013100005900D92AA31B107D9F723E0AAE1B1E017
:1013200001C01D92AB3CB207E1F712E1C8EFD2E178
:1013300004C02297FE010E94D319C43FD107C9F708
:101340000E94E6170C94341B0C9400000E940213B8
:101350000C94660BCF92DF92EF92FF92C0901E0129
:10136000D0901F01E0902001F090210180911A019E
:1013700090911B01A0911C01B0911D01A701960144
:10138000281B390B4A0B5B0B2F3F310541055105DB
:1013900009F0CCF43FEFC31AD30AE30AF30AC09270
:1013A0001E01D0921F01E0922001F09221010E94C3
:1013B000E014EC2DF0E0EE0FFF1FEE5DFE4F8C50C1
:1013C0009F4F91838083FF90EF90DF90CF9008959F
:1013D0001F920F920FB60F9211248F939F93AF938A
:1013E000BF93EF93FF9380911A0190911B01A091FD
:1013F0001C01B0911D010196A11DB11D80931A0120
:1014000090931B01A0931C01B0931D0180911A01C0
:1014100090911B01A0911C01B0911D01E82FF0E0FB
:10142000EE0FFF1FEE5DFE4F80819181909389004A
:1014300080938800FF91EF91BF91AF919F918F9121
:101440000F900FBE0F901F9018950F931F93CF937F
:10145000DF93EC0180E00E940D0B84B580932203A2
:1014600085B58093230387B58093240380916E0014
:10147000809325039E0140E050E060E472E48FE039
:1014800090E00E94B51989019A0140E066EA79E08E
:10149000C8010E942A0C0E94800C84B58093260308
:1014A00085B58093270387B58093280380916E00CC
:1014B000809329038091800080932A03809181008A
:1014C00080932B03809188009091890080932C0356
:1014D00080916F0080932D0361E089E00E94A8183D
:1014E00011E010934B0380E180934C0310924D0365
:1014F000809381001092800084EF90E0A0E0B0E043
:10150000109346039093480380934703909387007A
:101510008093860081E18093810061E089E00E94F0
:10152000A8188091800090914D03892B806880934A
:1015300080002091470330914803A4EFB0E00E945F
:10154000D719BAE09695879577956795BA95D1F7AB
:1015500070938900609388008091460390914C03BA
:10156000892B8093810010936F008091800080937D
:101570002E038091810080932F03809188009091A9
:1015800089008093300380916F0080933103DF9155
:10159000CF911F910F910895811109C080917A0018
:1015A000846080937A0080917A008D7F1AC08130A8
:1015B00071F480917A008B7F80937A0080917A0019
:1015C000826080937A0080917A0081600FC08230BF
:1015D00079F480917A008B7F80937A0080917A00F1
:1015E000826080937A0080917A008E7F80937A0067
:1015F000089580E090E041E050E060917E009A0123
:10160000082E01C0220F0A94EAF7622B60937E0035
:1016100001968630910589F70895EAE7F0E0908118
:10162000986090830E94CC0A0C94F90A87708064B9
:1016300080937C00EAE7F0E08081806480830895F5
:101640008E3008F08E5020914403309145032530B0
:10165000310554F42F5F3F4F3093450320934403EB
:10166000F901E25CFC4F8083E82FF0E0EE0FFF1FF2
:10167000EE5CFC4F20813181C9010895CF93DF9347
:101680001F92CDB7DEB780914403909145038F3F01
:101690002FEF920761F0FC01E25CFC4F208129836F
:1016A00001979093450380934403898101C08FEF94
:1016B00080930401809104018F3F21F08091040107
:1016C0000E94160B0F90DF91CF9108958091040135
:1016D0008F3F29F40E943E0B81E08093050108951D
:1016E000EAE7F0E08081806480830895E09104015E
:1016F0008091780090917900EE0FFF0BEE5CFC4F2B
:101700009183808308951F920F920FB60F92112438
:101710002F933F934F935F936F937F938F939F93F9
:10172000AF93BF93EF93FF9380910501882329F036
:101730000E94700B1092050107C00E94760B0E9458
:101740003E0B81E080930501FF91EF91BF91AF9136
:101750009F918F917F916F915F914F913F912F91C9
:101760000F900FBE0F901F9018958FEF9FEF9093E3
:1017700045038093440308950F931F9380910601BE
:1017800090910701A0910801B0910901BC01552772
:101790004427482759276A277B27DB01CA0135E000
:1017A000B695A795979587953A95D1F7842795276C
:1017B000A627B72740910A0150910B0160910C01B7
:1017C00070910D0140930601509307016093080149
:1017D0007093090100910E0110910F0120911001E9
:1017E0003091110100930A0110930B0120930C0119
:1017F00030930D0104271527262737270827192797
:101800002A273B27880F991FAA1FBB1F08271927C4
:101810002A273B2700930E0110930F0120931001FC
:1018200030931101B801C9011F910F910895CF9311
:10183000DF93EC010E94BC0B9B01AC0144275527B0
:10184000DE010E94F519AC0166277727CA01DF91F6
:10185000CF910895CF92DF92EF92FF92CF93709342
:1018600051036093500340935203A0E0B0E023E0A3
:10187000880F991FAA1FBB1F2A95D1F720E030E0DF
:10188000F901E257FF4FC491CC2381F06C017D0137
:10189000022E04C0F694E794D794C7940A94D2F722
:1018A00041E0C416D406E104F10438F02F5F3F4F45
:1018B0002B30310529F780E01DC0A1E0B0E002C067
:1018C000AA0FBB1F2A95E2F7A70196010E94F519FE
:1018D00028E030E040E050E00E94B51930934F031B
:1018E00020934E0310926E0082E084BDC5BDCA9461
:1018F000C7BC81E0CF91FF90EF90DF90CF9008952B
:10190000EEE6F0E0808182608083089578941F92F3
:101910000F920FB60F9211242F933F934F935F9323
:101920006F937F938F939F93AF93BF93EF93FF93A7
:1019300010926E00E0915003F09151030995F894D4
:1019400080915203882311F016BCA99A80916E00F1
:10195000826080936E00FF91EF91BF91AF919F9154
:101960008F917F916F915F914F913F912F910F9048
:101970000FBE0F901F901895CF93C82F80FF02C005
:1019800061E001C060E088E00E94E018C1FF02C091
:1019900061E001C060E08AE00E94E018C2FF02C07E
:1019A00061E001C060E087E00E94E018C3FF02C070
:1019B00061E001C060E083E0CF910C94E0182F92C9
:1019C0003F924F925F926F927F928F929F92AF92CF
:1019D000BF92CF92DF92EF92FF920F931F93CF931C
:1019E000DF9300D000D000D0CDB7DEB7E82FF0E015
:1019F000E331F10508F0EDC4EC5CFF4F0C94D11914
:101A00001092A10380E0E3C42091A2032B832090D5
:101A1000A3033090A4034090A503B091A603A09126
:101A2000A703E091A803F091A903322D432D542D73
:101A30006B2F7A2FCF0103E00E94B31A522E632E30
:101A4000742E852E962E7E8389839A838091AA0395
:101A500062E30E949319992787FD90950196192FAB
:101A6000110F110B5C01C12ED12EE12EF12E012F91
:101A70002B81322D432D542D6B2F7A2FCF010E94B5
:101A8000FF192053384F4F4F5F4F6F4F7F4F8F4F8E
:101A90009F4F10EAA12E0FE0B02EC12CD12CE12CCB
:101AA000F12C00E010E00E94FD1959016A017B0150
:101AB0008C01252D362D472D582D692D7E8189814C
:101AC0009A810E94FF198091AB0387FD8F5F8595F6
:101AD0008D5F829F802D11249B81892335C4F091D5
:101AE000A2038090A3039090A4031091A503E0901B
:101AF000A603F090A703B091A803A091A9032F2FEC
:101B0000382D492D512FB7018B2F9A2F08E00E94B5
:101B1000C21AE22FEB770091AB032F2F382D492DFE
:101B2000512FB7018B2F9A2F0E94C21AE2230091E6
:101B3000AA032F2F382D492D512FB7018B2F9A2F04
:101B40000E94C21AE223EF9FE02D1124E093A1032B
:101B50001CC4A091AB03EA2FEE0FEE0BB091A203D1
:101B6000B090A303C090A403D090A503E090A60377
:101B7000F090A7039090A803A090A9032B2F3B2DD2
:101B8000A601B701892D9A2D01E00E94C21AA29FD9
:101B9000F02D1124AB9F802D1124F82B8091AA03E6
:101BA00069E10E9493190AE010E0081B110987FD02
:101BB00013952B2F3B2DA601B701892D9A2D0E943D
:101BC000C21A122F2A2F3E2F4E2F5E2F6E2F7E2FDE
:101BD0008E2F9E2FAFE00E94D11AB29FB02D1124FC
:101BE000B123FB2BF093A103F1C39090A203A0912A
:101BF000A3034091A4035091A5036091A6037091A3
:101C0000A7038091A8039091A9032091AA033327E9
:101C100027FD3095F9013396F7FF02C0F90134969C
:101C2000F595E7951F2F110F110B5F01C12ED12ED6
:101C3000E12EF12E012F292D3A2F0E94FF194091FC
:101C4000AB03552747FD5095CA01029697FF02C086
:101C5000CA01039695958795899D802D1124822729
:101C60008093A10384E0B3C3F091A2037090A30317
:101C70008090A4039090A5031091A603E090A70381
:101C8000F090A803B091A9030091AB032F2F372D3B
:101C9000A401612F7E2D8F2D9B2F0E94C21A2F9F92
:101CA000E02D11242F2F372DA401612F7E2D8F2D94
:101CB0009B2F09E00E94C21AE22B2F2F372DA4017F
:101CC000612F7E2D8F2D9B2F08E00E94C21A2E724D
:101CD000E2230091AA032F2F372DA401612F7E2D1F
:101CE0008F2D9B2F0E94C21AA22FAF232F2F372D8B
:101CF000A401612F7E2D8F2D9B2F06E00E94C21A1A
:101D0000A22BEA27E093A10385E061C32090A20300
:101D1000E091A303E9834090A4035090A503609051
:101D2000A6037090A7038090A8039090A9033E2F6C
:101D3000307120E040E050E060E070E080E090E052
:101D4000A0E00E94E61A09F443C0A090AB031A2D4C
:101D5000110F110BB12EC12ED12EE12EF12E012F1C
:101D6000222D3E2FA201B301C4010E94FD1922259C
:101D7000F9813F274425552566257725A22CBF2EBE
:101D8000620173018401882599250E940B1A322E65
:101D9000132FB42FA52FF62FE72F7C01222D3B2DDB
:101DA000A201B301C40104E00E94C21A322A132B1B
:101DB000B42BA52BF62BE72B232D312F4B2F5A2F8E
:101DC0006F2F7E2F8E299F2901E00E94C21A1BC00F
:101DD0000091AA03222D3981A201B301C4010E94FE
:101DE000C21AE22F3981307220E040E050E060E01A
:101DF00070E080E090E0A0E00E94E61A11F0220C72
:101E0000220C222D2E2B2093A10386E0E0C2F0911C
:101E1000A2038090A3039090A4031091A503E090E7
:101E2000A603F090A703B091A803A091A903E091A5
:101E3000AA032F2F382D492D512FB7018B2F9A2F01
:101E400008E00E94C21AE2232F2F382D492D512F6E
:101E5000B7018B2F9A2F03E00E94C21AE223009150
:101E6000AB032F2F382D492D512FB7018B2F9A2FD0
:101E70000E94C21AE223EF9FE02D1124E093A103F8
:101E800087E0A5C2F091A203E090A303F090A40321
:101E90001091A503C090A603D090A703B091A8030A
:101EA000A091A9032F2F3E2D4F2D512FB6018B2F1F
:101EB0009A2F02E00E94B31A0091AA030E94C21A4C
:101EC000EF2FEE0FEF0FE2230091AB032F2F3E2DEC
:101ED0004F2D512FB6018B2F9A2F0E94C21A8F2F90
:101EE000880F880F8F0F8223E82BE093A10388E0EF
:101EF0006EC26090A2037090A3038090A4039090A0
:101F0000A5032091A6032E838091A7038B832090A5
:101F1000A8033090A9030091AB039301A4016E8143
:101F2000782FC1010E94C21A2901B42FA52FFB01ED
:101F300089839A839301A4016E817B81C10105E0AD
:101F40000E94C21A422A532AB42BA52BE62BF72B48
:101F500053016401EE80FB80810192014B2F5A2FC7
:101F6000BF01E9818E2BFA819F2B0E940B1AD22E82
:101F7000E32EF42E152FB62FA72FF82FE92F00915F
:101F8000AA039301A4016E817B81C1010E94C21A40
:101F9000022F2D2D3E2D4F2D512F6B2F7A2F8F2F4E
:101FA0009E2F0E94C21A2093A10389E010C2F091D3
:101FB000A203E090A303F090A4031091A503C090A6
:101FC000A603D090A703B091A803A091A9032F2F37
:101FD0003E2D4F2D512FB6018B2F9A2F02E00E94DC
:101FE000B31A0091AA030E94C21AEF2FEE0FEF0F4F
:101FF000E2230091AB032F2F3E2D4F2D512FB60121
:102000008B2F9A2F0E94C21A8F2F880F880F8F0F45
:102010008223E82BE093A1038AE0D9C1E091A203D7
:102020008090A3039090A4031091A503E090A603D1
:10203000F090A703B091A803A091A9032E2F382DEB
:10204000492D512FB7018B2F9A2F07E00E94C21AFA
:10205000F22FFE2B0091AB032E2F382D492D512F3F
:10206000B7018B2F9A2F0E94C21AF22BFE9FF02DE0
:1020700011240091AA032E2F382D492D512FB7017D
:102080008B2F9A2F0E94C21A722E2E2F382D492D77
:10209000512FB7018B2F9A2F0BE00E94C21A722A80
:1020A000F721F093A1038BE092C1F091A2038090FD
:1020B000A3039090A4031091A503E090A603F090D1
:1020C000A703B091A803A091A9032F2F382D492D64
:1020D000512FB7018B2F9A2F06E00E94C21AE22FD0
:1020E000EF2B0091AB032F2F382D492D512FB70126
:1020F0008B2F9A2F0E94C21A022F2F2F382D492D75
:10210000512FB7018B2F9A2F0E94C21AE22B2F2F2B
:10211000382D492D512FB7018B2F9A2F0BE00E949C
:10212000C21A8091AA0382232AE0E29F800D112423
:102130008093A1038CE04BC14090A2035090A30375
:102140006090A4037090A5038090A6039090A703CD
:102150002090A8033090A903E091AB03FF27E7FD8F
:10216000F09574969F2F990F990B5201630174019A
:1021700081019F01492F592F692F792F892F0E94A3
:102180000B1A09E00E94C21AE22F9201A301B401C6
:10219000C10101E00E94B31A59016A017B01F82FC5
:1021A000192F02E00E94B31A0F2F0E94DD1A590165
:1021B0006A017B01F82F192F03E00E94B31A0F2F39
:1021C0000E94DD1A0091AA030E94C21AE22BE0933A
:1021D000A1038DE0FCC04090A2035090A303609047
:1021E000A4037090A5038090A6039090A70320906D
:1021F000A8033090A903E091AB03FF27E7FDF0951A
:1022000074969F2F990F990B5201630174018101FC
:102210009F01492F592F692F792F892F0E940B1A5F
:1022200008E00E94C21AE22F9201A301B401C10189
:1022300001E00E94B31A59016A017B01F82F192F9E
:1022400002E00E94B31A0F2F0E94DD1A59016A01A1
:102250007B01F82F192F03E00E94B31A0F2F0E9461
:10226000DD1A0091AA030E94C21AE22BE093A10397
:102270008EE0ADC06090A2038090A3039090A40371
:10228000B090A503C090A603D090A703E090A80348
:10229000F090A9030091AB03262D382D492D5B2D1D
:1022A000B601C7010E94C21A122F532EB42FA52FB8
:1022B000F62FE72F782EA92E262D382D492D5B2DB0
:1022C000B601C7010AE00E94C21A122B532AB42B8E
:1022D000A52BF62BE72B212F352D4B2F5A2F6F2FA8
:1022E0007E2F87299A29AEEF0E94D11AEBE0AE2EFD
:1022F000B12CC12CD12CE12CF12C00E010E00E947B
:10230000FD19269D202D11248091AA0328232093B6
:10231000A1038FE05CC0E091A2033091A303409140
:10232000A4035091A5036091A6037091A7030091A7
:10233000AB032E2F8091A8039091A9030E94C21A8B
:102340008091AA038E23822B8093A10381E03FC05A
:10235000E091A2033091A3034091A4035091A503FF
:102360006091A6037091A7030091AB03000F110BBE
:102370002E2F8091A8039091A9030E94C21A8091E8
:10238000AA038E23822B8093A10382E020C0209198
:10239000A2033091A3034091A4035091A50360913F
:1023A000A6037091A7030091AB03E091AA03EE0F7F
:1023B000EE0FE223E350000F110B8091A8039091E0
:1023C000A9030E94C21AE22BE093A10383E00E94BA
:1023D000BC0C8091A10326960FB6F894DEBF0FBE09
:1023E000CDBFDF91CF911F910F91FF90EF90DF90C4
:1023F000CF90BF90AF909F908F907F906F905F90A5
:102400004F903F902F9008958091AD039091AE032F
:1024100068E370E00E94A1196093B6038091AF0356
:102420009091B00328E230E0B9010E94A1196093B5
:10243000AB038091B1039091B203B9010E94A1193D
:102440006093AA0308950C94AA092FB7F894AB01DE
:10245000662757FD6095762F3DE0440F551F661F98
:10246000771F3A95D1F744275527FC0144835583BC
:10247000668377832FBF0895CF93DF938091AC035A
:102480006091AD037091AE03811115C087E993E0AF
:102490000E9425126091AF037091B0038FE693E024
:1024A0000E9425126091B1037091B2038DE893E010
:1024B0000E9425122CC08091160190911701689FEF
:1024C000E001699FD00D789FD00D112487E993E03A
:1024D0000E942512BE018DE893E00E9425126091B2
:1024E000B1037091B20383E893E00E9425128091BA
:1024F000AF039091B003AA2797FDA095BA2F8093C0
:10250000120190931301A0931401B09315018091CF
:10251000B303813009F044C06091AD037091AE0304
:1025200087E993E00E9425126091AF037091B00398
:102530008FE693E00E9425128091B1039091B2033F
:1025400067E170E00E94A11985E693E00E942512E0
:1025500080E098E00E94170C2FB7F894A0E0B0E05C
:10256000DC01992788278093970390939803A09381
:102570009903B0939A032FBF80E098E00E94170C54
:102580002FB7F894A0E0B0E0DC019927882780936A
:102590006F0390937003A0937103B09372032FBFE6
:1025A0006091B4037091B503882777FD8095982FCB
:1025B0000E94F71620E030E044E452E40E946116E5
:1025C000CFB7F89420E030E040E054E40E94831755
:1025D00020E030E040E858E30E94831720E030E03C
:1025E00040E857E40E9483170E94C91660937D0358
:1025F00070937E0380937F0390938003CFBFDF911E
:10260000CF910895AF92BF92CF92DF92EF92FF9257
:102610000F931F93CF9385E00E9416198093B70301
:1026200084E00E9416198093B80380E00E94161976
:102630008093B90381E00E9416198093BA0382E067
:102640000E9416198093BB038EE00E94200B90938A
:10265000AE038093AD038FE00E94200B9093B003F4
:102660008093AF0380E10E94200B9093B20380938C
:10267000B10381E10E94200B9093B5038093B403D2
:1026800082E10E94200BBC01882777FD8095982F5E
:102690001F921F921F92CFEFCF93A12CB12C6501F7
:1026A000A394EE24EA9413E0F12E00E010E020E081
:1026B00030E0A9010E943E196093BC0383E10E94AF
:1026C000200BBC01882777FD8095982F1F921F92C1
:1026D0001F92CF93A12CB12C650120E030E0A9011D
:1026E0000E943E196093BD038091BC038093540304
:1026F000209153038095829FC0011124892F99272F
:10270000820F911D9093560380935503609353035A
:102710008DB79EB708960FB6F8949EBF0FBE8DBFBB
:102720008091BB03813019F48093BE031BC01092CB
:10273000BE03C091B903C13031F486E00E94BC0CE5
:10274000C093B3030FC01092B3038091BA038130DA
:1027500021F48093AC0385E003C01092AC0384E0C5
:102760000E94BC0C8091BF039091B703811105C0FA
:10277000913069F41092C00306C0813041F4911188
:1027800006C08093C00380E991E00E9439188091CF
:10279000B7038093BF039091C1038091B803911157
:1027A00005C0813069F48093180106C0913041F46E
:1027B000811106C01092180180E991E00E94391839
:1027C0008091B8038093C1038091BE0381110BC037
:1027D000CF911F910F91FF90EF90DF90CF90BF901E
:1027E000AF900C943C12CF911F910F91FF90EF90FE
:1027F000DF90CF90BF90AF900C94041262E080E025
:102800000E94A81862E081E00E94A81862E082E0BD
:102810000E94A81862E085E00E94A81862E084E0A7
:102820000E94A81860E08EE00E94A81860E08FE087
:102830000E94A81860E080E10E94A81860E081E191
:102840000E94A81860E082E10E94A81860E083E17D
:102850000E94A81861E088E00E94A81861E08AE060
:102860000E94A81861E087E00E94A81868EB71E058
:1028700087E993E00E94251268EB71E08DE893E010
:102880000E94251268EB71E083E893E00E94251214
:1028900068EB71E08FE693E00E94251268EB71E02F
:1028A00085E693E00E94251268EB71E08BE593E0EA
:1028B0000E9425122FB7F89480E098E2A0E0B0E0E3
:1028C00080937D0390937E03A0937F03B093800356
:1028D0002FBF1092530380E490E00C94250A0F93CD
:1028E0001F93FC01448155816681778100811181AC
:1028F00022813381400F511F621F731F4083518318
:1029000062837383AB016627772757706627772723
:102910000084F185E02DE40FF51F84911F910F9144
:1029200008950F931F93FC0144815581668177813F
:102930000081118122813381400F511F621F731F5B
:102940004083518362837383AB016627772751707D
:10295000662777270084F185E02DE40FF51F849129
:102960001F910F9108950F931F93FC01048115810E
:102970002681378180819181A281B381080F191F3F
:102980002A1F3B1F00831183228333838BE0440F74
:10299000551F661F771F8A95D1F7400F511F621F81
:1029A000731FAB0166277727577066277727008448
:1029B000F185E02DE40FF51F84911F910F9108958B
:1029C0008F929F92AF92BF92CF92DF92EF92FF923F
:1029D0000F931F93CF93DF9300D000D0CDB7DEB716
:1029E0008091BE038111B4C08091AC03811137C0C6
:1029F00087E993E00E946F14182F89E793E00E9403
:102A00009114E82E8FE693E00E946F14082F89E757
:102A100093E00E9491149E2D190270011124EF2C55
:102A2000FF0CFF080802C0011124892F990F990B90
:102A3000E80EF91E8DE893E00E946F14182F89E7C5
:102A400093E00E9491141802C0011124892F990F5C
:102A5000990B8E0D9F1D95958795B82E45C0813099
:102A600009F041C0209112013091130140911401ED
:102A70005091150187E993E029833A834B835C8366
:102A80000E946F14A82FBB27A7FDB09529813A811A
:102A90004B815C810E94F5196B017C0189E793E011
:102AA0000E949114182FB701A6018DE893E00E94AF
:102AB000B314082FB701A60183E893E00E94B31472
:102AC000282F332727FD3095200F311D07FD3A951C
:102AD00012034001139F900C1124892C990C990822
:102AE0008594B82C01C0B12C8091B303813009F0DA
:102AF00057C087E993E00E946F14182F8FE693E088
:102B00000E946F14882E85E693E00E946F14082FB0
:102B100089E793E00E949114992487FC9094810E98
:102B2000911C17FD9A94959487940802C001112472
:102B3000292F332727FD3A95820E931E8B0C911C6B
:102B4000B7FC9A949594879495948794B82C28C050
:102B50002091A2033091A3034091A4035091A503B7
:102B60006091A6037091A7038091A8039091A90397
:102B7000A1E00E94D11A2093A2033093A3034093B3
:102B8000A4035093A5036093A6037093A7038093B7
:102B9000A8039093A9038091B6030E94DF0CB82E7E
:102BA0008091C003811152C010915403409157038A
:102BB00050915803E0915903F0915A03DA01AE1B8A
:102BC000BF0B20915503309156036A01EE24D7FCC8
:102BD000E094FE2C8B2C992487FC9094841A950AFF
:102BE000AA2497FCA094BA2C0E94E319BB2797FD56
:102BF000BA95A92F982F872F880E991EAA1EBB1E43
:102C0000A12FB0E0A50194010E94EA19BB2797FD0E
:102C1000BA95A92F982F872FC80ED91EEA1EFB1E22
:102C20009601D0925803C09257032E1B3F0B129F60
:102C3000C001139F900D1124892F990F990B8E0FAE
:102C40009F1F90935A0380935903B82E80911801C7
:102C5000EB2DE80240011124C4010F900F900F905A
:102C60000F90DF91CF911F910F91FF90EF90DF9028
:102C7000CF90BF90AF909F908F90089589E990E09A
:102C80009093A00380939F03909396038093950362
:102C900090938C0380938B0389E998E0909382034F
:102CA0008093810389E99AE0909378038093770376
:102CB00090936E0380936D039093640380936303FA
:102CC00008950CD0E6C0DED040F0D5D030F021F42D
:102CD0005F3F19F0C7C0511110C1CAC0EBD098F3C3
:102CE0009923C9F35523B1F3951B550BBB27AA278D
:102CF00062177307840738F09F5F5F4F220F331FFF
:102D0000441FAA1FA9F333D00E2E3AF0E0E830D0CA
:102D100091505040E695001CCAF729D0FE2F27D0CD
:102D2000660F771F881FBB1F261737074807AB079B
:102D3000B0E809F0BB0B802DBF01FF2793585F4F10
:102D40002AF09E3F510568F08DC0D7C05F3FECF37D
:102D5000983EDCF3869577956795B795F7959F5FD5
:102D6000C9F7880F911D9695879597F90895E1E029
:102D7000660F771F881FBB1F621773078407BA0788
:102D800020F0621B730B840BBA0BEE1F88F7E095E3
:102D9000089598D088F09F5790F0B92F9927B75190
:102DA000A0F0D1F0660F771F881F991F1AF0BA950F
:102DB000C9F712C0B13081F09FD0B1E008959CC036
:102DC000672F782F8827B85F39F0B93FCCF3869505
:102DD00077956795B395D9F73EF490958095709562
:102DE00061957F4F8F4F9F4F0895E89409C097FBDF
:102DF0003EF490958095709561957F4F8F4F9F4FD2
:102E00009923A9F0F92F96E9BB279395F695879515
:102E100077956795B795F111F8CFFAF4BB0F11F4D8
:102E200060FF1BC06F5F7F4F8F4F9F4F16C088237F
:102E300011F096E911C0772321F09EE8872F762FB5
:102E400005C0662371F096E8862F70E060E02AF0F6
:102E50009A95660F771F881FDAF7880F96958795E2
:102E600097F9089597F99F6780E870E060E008950A
:102E70009FEF80EC089500240A9416161706180692
:102E80000906089500240A9412161306140605066E
:102E90000895092E0394000C11F4882352F0BB0FFF
:102EA00040F4BF2B11F460FF04C06F5F7F4F8F4F62
:102EB0009F4F089557FD9058440F551F59F05F3F9D
:102EC00071F04795880F97FB991F61F09F3F79F04C
:102ED00087950895121613061406551FF2CF4695CE
:102EE000F1DF08C0161617061806991FF1CF869550
:102EF0007105610508940895E894BB276627772734
:102F0000CB0197F908950BD0C4CFB5DF28F0BADF15
:102F100018F0952309F0A6CFABCF1124EECFCADF6E
:102F2000A0F3959FD1F3950F50E0551F629FF001DC
:102F3000729FBB27F00DB11D639FAA27F00DB11D35
:102F4000AA1F649F6627B00DA11D661F829F2227BE
:102F5000B00DA11D621F739FB00DA11D621F839F45
:102F6000A00D611D221F749F3327A00D611D231F1B
:102F7000849F600D211D822F762F6A2F11249F5769
:102F800050408AF0E1F088234AF0EE0FFF1FBB1F8C
:102F9000661F771F881F91505040A9F79E3F51052B
:102FA00070F060CFAACF5F3FECF3983EDCF38695DC
:102FB00077956795B795F795E7959F5FC1F7FE2BD6
:102FC000880F911D9695879597F908955CD016DC2A
:102FD000C0E0D0E038DA2097E9F312D8FBCF1F9297
:102FE0000F920FB60F9211242F933F938F939F93BD
:102FF000AF93BF938091C2039091C303A091C40388
:10300000B091C5033091CA03232F2A5F2D3720F4D6
:103010000296A11DB11D05C0232F27570396A11DA0
:10302000B11D2093CA038093C2039093C303A0935E
:10303000C403B093C5038091C6039091C703A091C8
:10304000C803B091C9030196A11DB11D8093C603A9
:103050009093C703A093C803B093C903BF91AF91E6
:103060009F918F913F912F910F900FBE0F901F90C6
:103070001895019739F0019729F0880F991F01974A
:103080000197F1F70895789484B5826084BD84B582
:10309000816084BD85B5826085BD85B5816085BD53
:1030A000EEE6F0E0808181608083E1E8F0E010826C
:1030B000808182608083808181608083E0E8F0E0AD
:1030C000808181608083E1EBF0E080818460808397
:1030D000E0EBF0E0808181608083EAE7F0E08081CE
:1030E000846080838081826080838081816080832E
:1030F0008081806880831092C1000895833069F0D8
:1031000028F48130A1F0823011F514C08630B1F07E
:103110008730C1F08430D9F404C0809180008F776B
:1031200003C0809180008F7D80938000089584B5D6
:103130008F7702C084B58F7D84BD08958091B000E3
:103140008F7703C08091B0008F7D8093B000089589
:10315000CF93DF9390E0FC01E355FD4E4491FC01D9
:10316000EF53FD4E8491882341F190E0880F991F21
:10317000FC01E751FD4E25913491D90181529D4EBC
:10318000FC0185919491C82FD92F9FB7F8948C9109
:10319000611106C0409584238C938881842308C0E4
:1031A000623041F4242F209582238C938881842BD4
:1031B000888302C0842B8C939FBFDF91CF910895A9
:1031C0000F931F93CF93DF931F92CDB7DEB7282FB6
:1031D00030E0F901E756FD4E8491F901E355FD4ECB
:1031E0001491F901EF53FD4E04910023C9F0882397
:1031F00019F0698383DF6981E02FF0E0EE0FFF1F94
:10320000E152FD4E85919491DC019FB7F8948C9129
:10321000611103C01095812301C0812B8C939FBF46
:103220000F90DF91CF911F910F910895CF93DF936E
:10323000282F30E0F901E756FD4E8491F901E3555E
:10324000FD4ED491F901EF53FD4EC491CC2381F092
:10325000811154DFEC2FF0E0EE0FFF1FEB52FD4E1B
:1032600085919491DC018C918D2321E030E011F463
:1032700020E030E0C901DF91CF9108954F925F9235
:103280006F927F92AF92BF92CF92DF92EF92FF92B6
:103290000F931F93CF93DF93CDB7DEB729013A0188
:1032A000621B730B840B950B29893A894B895C89C6
:1032B0002A193B094C095D09298B3A8B4B8B5C8B96
:1032C0009B01AC0169897A898B899C891CD0E4189F
:1032D000F50806091709A801970147D02A0D3B1DDB
:1032E0004C1D5D1DB901CA01DF91CF911F910F9156
:1032F000FF90EF90DF90CF90BF90AF907F906F9056
:103300005F904F900895DB018F939F930E94EA197D
:10331000BF91AF91A29F800D911DA39F900DB29F71
:10332000900D1124089587FB082E062687FD8195B0
:1033300067FD61950E94F21A0EF4919507FC819544
:10334000089597FB072E16F4009407D077FD09D057
:103350000E94FE1A07FC05D03EF4909581959F4F80
:103360000895709561957F4F0895052E97FB16F48B
:10337000009407D057FD0DD00E94121B07FC09D006
:103380007EF490958095709561957F4F8F4F9F4FFC
:10339000089550954095309521953F4F4F4F5F4F81
:1033A0000895EE0FFF1F0590F491E02D0994A29F60
:1033B000B001B39FC001A39F01D0B29F700D811DCA
:1033C0001124911D08950E94D719B7FF0895821BFB
:1033D000930B08950E94D719A59F900DB49F900D4F
:1033E000A49F800D911D11240895B7FF0C94EA1934
:1033F0000E94EA19821B930B0895689401C0E89417
:103400008F929F92CF93DF930E94621ADF91CF91A8
:103410009F908F900895DF93CF931F930F939A9D62
:10342000F02D219FF00D8B9DF00D8A9DE02DF10D6B
:10343000039FF00D029FE00DF11D4E9DE00DF11D6B
:103440005E9DF00D4F9DF00D7F936F93BF92AF92F5
:103450005F934F93D5010E94D7198B01AC01D7011F
:103460000E94D719EB01E80FF91FD60122D02F9146
:103470003F91D6010E94D719C60FD71FE81FF91F29
:10348000AF91BF9116D02F913F910E94D719C60FCF
:10349000D71FE81FF91FD6010E94D719E60FF71FA3
:1034A0009801BE01CF0111240F911F91CF91DF919F
:1034B00008950E94D719460F571FC81FD91F08F437
:1034C0003196089588249924F401E401B0E49F938F
:1034D000AA279A158B049C04ED05FE05CF05D0079D
:1034E000A10798F4AD2FDC2FCF2FFE2FE92D982CBC
:1034F000892E982F872F762F652F542F432F322F09
:103500002227B85031F7BF9127C01B2EBF91BB2790
:10351000220F331F441F551F661F771F881F991FD7
:10352000881C991CEE1FFF1FCC1FDD1FAA1FBB1F8D
:103530008A149B04EC05FD05CE05DF05A007B10745
:1035400048F08A189B08EC09FD09CE09DF09A00B99
:10355000B10B21601A94E1F62EF49401AF01BE0183
:10356000CD01000C08950F930F7351F0220F331FFC
:10357000441F551F661F771F881F991F0A95B1F7B3
:103580000F9108950F930F7351F096958795779546
:10359000679557954795379527950A95B1F70F91F8
:1035A00008950024A7FD00942A0F301D401D501DD2
:1035B000601D701D801D901D08952A193B094C093E
:1035C0005D096E097F09800B910B08950024A7FD0A
:1035D00000942A17300540055005600570058005E8
:1035E00090050895991B79E004C0991F961708F07B
:1035F000961B881F7A95C9F780950895AA1BBB1B57
:1036000051E107C0AA1FBB1FA617B70710F0A61BE2
:10361000B70B881F991F5A95A9F780959095BC0103
:10362000CD010895A1E21A2EAA1BBB1BFD010DC0FE
:10363000AA1FBB1FEE1FFF1FA217B307E407F50762
:1036400020F0A21BB30BE40BF50B661F771F881F3E
:10365000991F1A9469F760957095809590959B01D4
:0C366000AC01BD01CF010895F894FFCF2C
:10366C0001000000FF015521E507E5559A15B53B12
:0A367C00121F2C01000003000100E2
:00000001FF
